:100000000C9434000C9451000C9451000C94510049
:100010000C9451000C9451000C9451000C9451001C
:100020000C9451000C9453000C9451000C94CA0190
:100030000C9451000C9451000C9451000C945100FC
:100040000C9451000C9451000C94FC020C9451003F
:100050000C9451000C9451000C9451000C945100DC
:100060000C9451000C94510011241FBECFEFD8E026
:10007000DEBFCDBF11E0A0E0B1E0ECE4FAE002C0E9
:1000800005900D92A838B107D9F721E0A8E8B1E0B2
:1000900001C01D92AE3EB207E1F70E9491020C949E
:1000A00024050C9400001F920F920FB60F9211249A
:1000B0002F933F936F937F938F939F9380919201A0
:1000C000882371F0109292018091E8018093900151
:1000D0008091E70180938F018091E60180938E01EA
:1000E0008091910191E089278093910180918D0108
:1000F000875E843618F480938D0123C010928D01A1
:1001000080918E018F5F8C3318F480938E0119C01B
:1001100010928E0180918F018F5F80938F018C33BD
:1001200080F0109293019093010110928F018091C1
:1001300090018F5F883118F48093900102C0109273
:1001400090012091E90180919001280F283108F059
:10015000285180918F013AE0632F0E943C039093D5
:10016000060180930701822F0E943C0390930801AF
:100170008093090180918D010E943C0390930A01B4
:1001800080930B0180918E010E943C0390930C019F
:1001900080930D019F918F917F916F913F912F914E
:1001A0000F900FBE0F901F90189528E030E09BB184
:1001B0009B7E9BB94BB1982F991F9927991F9295B8
:1001C000907F942B9BB95A9A880F2150310979F767
:1001D0000895CF93DF935B98C0918B01D0E0E091BD
:1001E000EB0180918C019AE0E99FF0011124E80F66
:1001F000F11DEE0FFF1FEE0FFF1FEC0FFD1FE25F63
:10020000FE4F808180950E94D5008091EB0194E0A3
:10021000899FC00DD11D1124CE58DE4F88810E94C8
:10022000D5005B9A80918A018F5F883219F08093A4
:100230008A010CC010928A0180918C01893019F4D6
:100240001092000103C08F5F80938C0180918B011D
:100250008F5F837080938B01DF91CF910895CF934F
:10026000DF938530E0F55B98C82FD0E06A3010F05E
:100270008FEB26C0E091EB012E2F30E08AE0E89F63
:10028000F0011124E60FF11DE25AFE4F908180919A
:10029000EA01813091F0F901EE0FFF1FEE0FFF1F11
:1002A000EC0FFD1FEE58FE4F8081843031F48091B9
:1002B0009101882311F080E801C080E0892B8095AE
:1002C0000E94D5008091EB0194E0899FC00DD11D63
:1002D0001124CE58DE4F88810E94D5005B9ADF91B1
:1002E000CF9108959091EA0180918901E82FF0E083
:1002F000913031F0EA5FFE4F923021F4648103C007
:10030000EE5FFE4F60810E942F01809189018F5F17
:1003100083708093890108958091EA01813059F0BA
:1003200018F0823029F0089582E08093EA01089560
:100330001092EA0108956091E9016C3011F06F5F4D
:1003400001C062E06093E90180E090E00E949304C4
:100350008091E9016AE00E943C039093020180933E
:100360000301089589B190E0880F892F881F990BA8
:10037000892B11F4189907C04F9B04C083B18823BF
:1003800029F0089508951092EB01089581E080937B
:10039000EB0108951F920F920FB60F9211242F9325
:1003A0003F934F935F936F937F938F939F93AF93FD
:1003B000BF93EF93FF930E94B201809100018823C5
:1003C00019F00E94E90002C00E947201FF91EF91B2
:1003D000BF91AF919F918F917F916F915F914F915D
:1003E0003F912F910F900FBE0F901F9018950F9374
:1003F0001F93CF93DF9310910101112309F48BC058
:1004000010919301112309F486C0809194018432E4
:1004100009F07EC0E4E9F1E001900020E9F73197AE
:10042000EF01C459D140CB3008F472C06AE771E0E3
:1004300084E991E00E946E04892B49F461E871E03F
:1004400084E991E00E946E04892B09F461C0DD27E4
:1004500040E150E060E070E0CE018E569E4F0E9479
:100460004803062F662309F453C06CE270E084E968
:1004700091E00E946304FC01009709F449C0DC018B
:1004800011969C01295F3F4F8D9180538A3008F06F
:100490003FC0A217B307C1F7928120ED290F9181C8
:1004A000990F9056892F880F880F980F920F90936D
:1004B000E801948120ED290F9381990F9056892F9F
:1004C000880F880F980F920F9093E701968120ED87
:1004D000290F9581990F9056892F880F880F980FB3
:1004E000920F9093E601E5E9F1E080E023979F0108
:1004F000245931402C173D071CF491918927F7CFDF
:10050000801306C01092010181E08093920103C024
:100510001092930110E0812FDF91CF911F910F91E5
:1005200008958CE18AB95B9880E00E94D5005B9ABF
:100530001092C50083E38093C40080E98093C100DA
:1005400086E08093C20080E090E00E948B0480935C
:10055000E9016AE00E943C03909302018093030149
:10056000789482E080936F008DE08093810087E231
:1005700090E090938900809388000E94F70188237F
:10058000E1F380E28093B6008091B10083608093B4
:10059000B10080917000816080937000C0E0D0E075
:1005A00001E00E94F70119B110761D131CC0C5307F
:1005B00010F4CF5F19C0C530B9F4D03229F0D0346F
:1005C00081F40E948C010DC081E09091EA019111AB
:1005D00080E08093EA01882321F010929301009338
:1005E0000101C6E001C0C0E08FE19EE40197F1F790
:1005F00000C00000D12FD5CF1F920F920FB60F92DF
:1006000011248F939F93AF93BF93EF93FF938091A8
:10061000C60090919301911124C090918801923568
:1006200010F010928801843231F48093940181E0BB
:100630008093880116C0E09188018D3051F4F0E07C
:10064000EC56FE4F10821092880181E08093930156
:1006500008C0AE2FB0E0AC56BE4F8C93EF5FE09376
:100660008801FF91EF91BF91AF919F918F910F9072
:100670000FBE0F901F901895991B79E004C0991F29
:10068000961708F0961B881F7A95C9F780950895EC
:10069000A6E0B0E0EEE4F3E00C94DE045C016B0154
:1006A0007A016115710519F0DB018D939C93E114BA
:1006B000F10429F0C7010297839708F0DCC03501E7
:1006C000BFEF6B1A7B0AF5011081812F90E00E9429
:1006D0005A04892B11F05301F2CF1D3249F4350130
:1006E000F2E06F0E711CD50111961C9101E009C05A
:1006F0001B3231F43501B2E06B0E711CF501118132
:1007000000E0E114F10409F4C4C0F0E1EF16F104D3
:1007100089F4103399F5D3018C918F7D883509F0D8
:10072000B2C011961C91B2E06B0E711C026050E1D8
:10073000E52EF12CEAE0EE16F10409F4B0C0F0E188
:10074000EF16F104D9F028E0E216F10451F438E094
:10075000E32EF12C88248A94982CA82C4FE1B42EF7
:1007600013C06FEF7FEFCB0197010F2C000C440BF0
:10077000550B0E94B10449015A0106C088248A948D
:10078000982CA82C2FE0B22E7E826D8260E020E0B3
:1007900030E0A90127010F2C000C660877082D8096
:1007A0003E80E0EDE10FEA3060F08FEB810F8A319F
:1007B00010F4E9EC05C08FE9810F8A3190F5E9EA80
:1007C000E10F8E2F90E08E159F055CF56F3F09F1CC
:1007D00082169306A406B506D8F0C301B2010E94A2
:1007E000A1042E2F30E040E050E029833A834B8370
:1007F0005C83260F371F481F591F89819A81AB815F
:10080000BC81281739074A075B0710F061E001C077
:100810006FEFED81FE813196FE83ED83D1011C9156
:10082000BECFC114D10489F0662339F08D819E8139
:100830000197F6019183808308C001FF06C08D8176
:100840009E810297D6018D939C9300FF07C050951F
:100850004095309521953F4F4F4F5F4F67FF10C038
:1008600082E290E09093ED018093EC016FEF7FEFD7
:100870008FEF9FEF1BC060E070E080E090E016C05B
:10088000B901CA0113C010E3E114F10409F45FCF08
:1008900051CF103309F43FCF9AE0E92EF12C89E9CA
:1008A000882E982CA82C89E1B82E6ECF2696E2E1EE
:1008B0000C94FA0491110C948804803219F0895038
:1008C0008550C8F70895FC018191861721F088238F
:1008D000D9F7992708953197CF010895FB015191D8
:1008E0005523A9F0BF01DC014D9145174111E1F7F6
:1008F00059F4CD010190002049F04D91401541116E
:10090000C9F3FB014111EFCF81E090E00197089519
:10091000992788270895F999FECF92BD81BDF89A4D
:10092000992780B50895262FF999FECF1FBA92BD59
:1009300081BD20BD0FB6F894FA9AF99A0FBE0196C0
:100940000895DB018F939F930E94D304BF91AF91D1
:10095000A29F800D911DA39F900DB29F900D112419
:100960000895A1E21A2EAA1BBB1BFD010DC0AA1FF0
:10097000BB1FEE1FFF1FA217B307E407F50720F008
:10098000A21BB30BE40BF50B661F771F881F991F83
:100990001A9469F760957095809590959B01AC01CC
:1009A000BD01CF0108950E941505A59F900DB49F2C
:1009B000900DA49F800D911D112408952F923F92B8
:1009C0004F925F926F927F928F929F92AF92BF925F
:1009D000CF92DF92EF92FF920F931F93CF93DF930B
:1009E000CDB7DEB7CA1BDB0B0FB6F894DEBF0FBE68
:1009F000CDBF09942A88398848885F846E847D84B5
:100A00008C849B84AA84B984C884DF80EE80FD80B6
:100A10000C811B81AA81B981CE0FD11D0FB6F8942C
:100A2000DEBF0FBECDBFED010895A29FB001B39F01
:100A3000C001A39F700D811D1124911DB29F700DE7
:0C0A4000811D1124911D0895F894FFCF32
:100A4C000101FFFFFFFFFFFFFFFF00000000404020
:100A5C00404076404040797640403879764038388E
:100A6C0079763F383879403F383840403F384040FD
:100A7C00403F4040404040404040764040404F76F0
:100A8C004040074F764007074F763F07074F403FE0
:100A9C00070740403F074040403F404040403F0632
:100AAC005B4F666D7D077F6F3F305B79746D6F3880
:100ABC007F7D010204080804020124475047474186
:080ACC0000244750524D430085
:00000001FF
